:100000000C948A000C94F00D0C94B2000C94B20085
:100010000C94B2000C94B2000C94B2000C94B20098
:100020000C94B2000C94B2000C94B2000C94B20088
:100030000C94B2000C94B2000C94B2000C94B20078
:100040000C94250E0C94B2000C9497100C94C810CC
:100050000C94B2000C94B2000C94B2000C94B20058
:100060000C94971E0C94B200084AD73B3BCE016E0D
:1000700084BCBFFDC12F3D6C74319ABD56833DDAFF
:100080003D00C77F11BED9E4BB4C3E916BAAAABE0E
:10009000000000803F05A84CCDB2D44EB93836A937
:1000A000020C50B9918688083CA6AAAA2ABE000074
:1000B00000803F00000000240027002A000000000C
:1000C00000250028002B0000000000230026002946
:1000D00000040404040404040402020202020203F1
:1000E00003030303030102040810204080010204FB
:1000F000081020010204081020000000070002017F
:100100000000030406000000000000000000FB0DDA
:100110009211931D11241FBECFEFD8E0DEBFCDBFDB
:1001200012E0A0E0B1E0E2E6FDE402C005900D922D
:10013000A437B107D9F714E0A4E7B2E001C01D92DB
:10014000AB35B107E1F711E0C4E1D1E004C022977B
:10015000FE010E94AB26CE30D107C9F70E94CF1115
:100160000C944A220C9400008EBD0DB407FEFDCF06
:100170008EB50895CF92EF92FF920F931F93CF9376
:10018000DF931092690008E713E0C80140E052ECE9
:1001900061E070E00E940311C4E8D2E0CE0168E0A3
:1001A00070E020E038EE43E050E00E943717CE01C7
:1001B00065E00E94A516CE0165E045E022E00EEB69
:1001C00017EFE0E0EE2EE1E0FE2ECC24C3940E9477
:1001D000BA15CE0168E043E022E00EEC18E179E0C8
:1001E000E72E71E0F72E0E94BA1564EF71E080E00F
:1001F00090E00E94AD0E8DED93E00E944F1D0DE842
:1002000012E0C80163E042E00E94911CC8010E9414
:10021000411880E090E0AEECB3E48093A5029093A7
:10022000A602A093A702B093A80280E090E8A5EFF1
:10023000B3E48093A9029093AA02A093AB02B09377
:10024000AC0280E090E8A3E1B4E48093AD02909327
:10025000AE02A093AF02B093B00280E090ECAAE3AC
:10026000B4EC8093B1029093B202A093B302B09326
:10027000B40280E090E0A5E0B4EC8093B5029093E6
:10028000B602A093B702B093B80280E090E8A3E072
:10029000B4EC8093B9029093BA02A093BB02B093DE
:1002A000BC02CE0168E043E022E00EEC18E15BE026
:1002B000E52E51E0F52E0E94BA1564EF71E080E062
:1002C00090E00E94AD0E87E062E00E943C0F82E069
:1002D00062E00E943C0F85E062E00E943C0F89E0F2
:1002E00061E00E943C0F8AE061E00E943C0F0E94A6
:1002F0007B1781E00E949A1784E00E94A3178AE08E
:1003000060E00E94810F8EE80E94B40080E60E94A7
:10031000B4008AE061E00E94810FCE0168E043E012
:1003200022E03DE0E32E31E0F32E0E94BA1564EFA7
:1003300071E080E090E00E94AD0E0E94790E609323
:10034000C3027093C4028093C5029093C60280E0FA
:100350000E94040E0E944912CE0160E070E00E94EB
:100360008915DF91CF911F910F91FF90EF90CF9062
:1003700008950F931F93CF93DF93C0E0D0E005C0A3
:10038000C330D10511F4C4E0D0E08AE060E00E94FF
:10039000810F8C2F0E94B40080E00E94B400082FCF
:1003A00010E08AE061E00E94810F98012F703070A8
:1003B000C230D105D1F40073107074E01695079522
:1003C0007A95E1F70230110521F00130110531F481
:1003D00003C004E110E002C00AE010E0020F131FA6
:1003E0001093DE020093DD0269C0C430D105C1F470
:1003F0000073107064E0169507956A95E1F7C801DF
:10040000880F991F43E0000F111F4A95E1F7800FF5
:10041000911F820F931F9093E2028093E1024EC0DE
:10042000C530D105C1F40071107084E016950795B0
:100430008A95E1F7C801880F991FA3E0000F111FEB
:10044000AA95E1F7800F911F820F931F9093E4020A
:100450008093E30233C0C630D105B1F4F4E01695C1
:100460000795FA95E1F7C801880F991F73E0000F0F
:10047000111F7A95E1F7800F911F820F931F9093C0
:10048000E6028093E5021AC0FE01EE0FFF1FE7525D
:10049000FD4F0077107054E0169507955A95E1F7D7
:1004A000C801880F991FB3E0000F111FBA95E1F73B
:1004B000800F911F820F931F918380832196C730F5
:1004C000D1050CF45DCFDF91CF911F910F9108956D
:1004D000AF92BF92CF92DF92EF92FF920F931F9352
:1004E000DF93CF93CDB7DEB7A3970FB6F894DEBFF7
:1004F0000FBECDBF7C016FE071E00E944813CE01BA
:1005000001966FE071E00E9448130E94B901A0902B
:10051000DD02B090DE02A114B10439F0C5016CE037
:1005200070E00E942226BC0102C06CE070E0B8E0DE
:10053000CB2ED12CCC0EDD1EC6014AE00E949613B4
:100540008C859D858130910599F48E01015F1F4F47
:10055000C80160E171E00E944813C801B6010E9421
:100560000B14BC01C6010E946313C8010E94D6127D
:10057000A6E1CA2ED12CCC0EDD1E6091DB0270915B
:10058000DC02C6014AE00E9496138A8D9B8D813061
:10059000910599F48E01035E1F4FC80160E171E07F
:1005A0000E944813C801B6010E940B14BC01C60189
:1005B0000E946313C8010E94D612CE0101962CE05E
:1005C000A216B1041CF462E171E002C065E171E0C1
:1005D0000E947E13F8E0AF2EB12CAC0EBD1EC701F9
:1005E000B5010E94F213C70168E171E00E94FA139D
:1005F000E6E1CE2ED12CCC0EDD1EC701B6010E9445
:10060000F213C7016AE171E00E94FA13C7018E017B
:100610000F5F1F4FB8010E94F213C6010E94D6124D
:10062000C5010E94D612C8010E94D612C701A39626
:100630000FB6F894DEBF0FBECDBFCF91DF911F91F3
:100640000F91FF90EF90DF90CF90BF90AF90089503
:10065000AF92BF92CF92DF92EF92FF920F931F93D0
:10066000DF93CF93CDB7DEB7AA970FB6F894DEBF6E
:100670000FBECDBF7C016FE071E00E9448130E9465
:10068000B9016091E1027091E2026E010894C11C0F
:10069000D11CC6014AE00E9496138D819E81813053
:1006A000910599F48E01085F1F4FC80160E171E068
:1006B0000E944813C801B6010E940B14BC01C60178
:1006C0000E946313C8010E94D6129FE0C92ED12C4C
:1006D000CC0EDD1E6091E3027091E402C6014AE097
:1006E0000E9496138B899C898130910599F48E0123
:1006F0000A5E1F4FC80160E171E00E944813C80103
:10070000B6010E940B14BC01C6010E946313C8010C
:100710000E94D6128DE1C82ED12CCC0EDD1E609128
:10072000E5027091E602C6014AE00E94961389A193
:100730009AA18230910599F48E010C5D1F4FC8017A
:100740006CE171E00E944813C801B6010E940B14CD
:10075000BC01C6010E946313C8010E94D6120DE1BC
:10076000C02ED12CCC0EDD1EC701B6010E94F213A3
:10077000C7016FE171E00E94FA131FE0A12EB12CB6
:10078000AC0EBD1EC701B5010E94F213C7016FE197
:1007900071E00E94FA13C7018E010F5F1F4FB8016D
:1007A0000E94F213C6010E94D612C5010E94D61201
:1007B000C8010E94D612C701AA960FB6F894DEBFF0
:1007C0000FBECDBFCF91DF911F910F91FF90EF90A2
:1007D000DF90CF90BF90AF900895DF92EF92FF929D
:1007E0000F931F938AE060E00E94810F81E10E94D5
:1007F000B40080E00E94B400D82E8AE061E00E943C
:10080000810F8AE060E00E94810F82E10E94B400C3
:1008100080E00E94B400E82E8AE061E00E94810F2F
:10082000E294E694E69423E0E2226E2D70E08827BD
:1008300077FD8095982F0E94F22320E030E040E879
:100840005EE30E940B257B018C016D2D772767FDF0
:100850007095872F972F0E94F2239B01AC01C8014E
:10086000B7010E948E221F910F91FF90EF90DF90B1
:100870000895CF92DF92EF92FF920F931F93DF9331
:10088000CF93CDB7DEB72C970FB6F894DEBF0FBE6F
:10089000CDBF0DE812E0C8010E94021A80E090E08E
:1008A000DC0189839A83AB83BC8320E030E040E89D
:1008B0005FEB2D833E834F83588789879A87AB8769
:1008C000BC87C801CC24DA80EB80FC8000E01E816C
:1008D0002F81388540E05A856B857C850E943C1BC2
:1008E0009C01B901882777FD8095982F0E94F223FB
:1008F0000E94BF23CB012C960FB6F894DEBF0FBE2B
:10090000CDBFCF91DF911F910F91FF90EF90DF90BE
:10091000CF9008950F931F938C016FE071E00E94B8
:1009200048130E94790E23E0693E720708F454C010
:100930000E9439049C01019741E08736940720F01A
:10094000C80161E271E046C0A9014651504081E012
:100950004B33580720F0C80164E271E03BC04D32D0
:10096000510520F4C80167E271E034C0C901835425
:1009700090408D32910520F4C8016AE271E02AC0EE
:10098000C901805790408D32910520F4C8016DE275
:1009900071E020C0C9018D5990408D32910520F43D
:1009A000C80160E371E016C0C9018A5C90408D32D5
:1009B000910520F4C80163E371E00CC0275F30406B
:1009C0002D32310520F4C80166E371E003C0C8018F
:1009D00069E371E00E947E13C8011F910F91089591
:1009E0008F929F92AF92BF92CF92DF92EF92FF923F
:1009F0000F931F93982E892E6FE071E00E94481389
:100A000080E00E94040E90934B0280934A028A3049
:100A100091052CF4892D982D6CE371E01EC0883C63
:100A200091052CF4892D982D63E471E016C021E026
:100A3000843F92072CF4892D982D6AE471E00DC053
:100A4000E3E080329E072CF4892D982D61E571E05A
:100A500004C0892D982D68E571E00E947E1300D0B6
:100A600000D060914A0270914B02882777FD8095F3
:100A7000982F2FE030E040E050E0EDB7FEB7218343
:100A800032834383548320E030E0A901FFEFEF2E4F
:100A9000F3E0FF2E012D112DE1E0AE2EB12CC12C83
:100AA000D12C0E948D120F900F900F900F9084E820
:100AB00092E00E94A516892D982D1F910F91FF900D
:100AC000EF90DF90CF90BF90AF909F908F90089560
:100AD000DF93CF9300D0CDB7DEB7809157049091CC
:100AE0005804009711F48BE594E09E012F5F3F4F6F
:100AF000281B390BC9010F900F90CF91DF910895FA
:100B000088EC80937C0080917A00806880937A00E2
:100B100064E170E080E090E00E94AD0E80917A0088
:100B2000806480937A0080917A0086FDFCCF60918A
:100B30007800709179006653714080E090E00E94E7
:100B4000F02326EF38E24CE95FE30E945723089533
:100B50008DE892E00E94021A6091990270919A02C7
:100B600080919B0290919C020E94BF23CB0108952B
:100B70000E94790E6093C3027093C4028093C502F1
:100B80009093C60208951F93CF93DF931FE084E8EC
:100B900092E0612F0E94A51662E370E080E090E091
:100BA0000E94AD0E115099F784E892E060E00E9437
:100BB000BD1684E892E060E040E00E94821684E87E
:100BC00092E00E94A31483B7816083BF83B7817FC3
:100BD000846083BFE89A80917A008093D602109255
:100BE0007A00F89485B780668093D702982F9F7D0E
:100BF0009093D80285BF95BF7894889583B78E7FF0
:100C000083BF8091D60280937A000E94790E609310
:100C1000C3027093C4028093C5029093C60284E815
:100C200092E061E00E94BD1684E892E060E041E05D
:100C30000E94821684E892E060E00E94A516C0E05F
:100C4000D0E084E892E06C2F0E94A51662E370E089
:100C500080E090E00E94AD0E2196CF30D10589F75B
:100C6000DF91CF911F9108952F923F924F925F9203
:100C70006F927F928F92AF92BF92CF92EF92FF923C
:100C80000F931F93DF93CF93CDB7DEB7C855D040F6
:100C90000FB6F894DEBF0FBECDBF8E01055F1F4FAC
:100CA000C8010E94680281E3A82EB12CAC0EBD1EC3
:100CB000C801B50144E150E020E030E00E941E147C
:100CC000C8010E94D6128E010E5E1F4FC8010E94FD
:100CD0002803C801BE016B5B7F4F44E150E020E078
:100CE00030E00E941E14C8010E94D6120E94ED033B
:100CF0000E94BF23DC01CB0117E2212E312C2C0EE8
:100D00003D1EB1014AE050E00E946C228E01075E58
:100D10001F4FC8010E948A04C8012E010894411C7B
:100D2000511CB20143E050E020E030E00E941E146C
:100D3000C8010E94D6128E01005E1F4FC8010E949A
:100D4000F004C801BE016C5F7F4F47E050E020E037
:100D500030E00E941E14C8010E94D612B4E86B2E27
:100D6000B2E07B2E0091CE021091CF02C30166E06B
:100D700040E022E0AFE5EA2EA1E0FA2ECC24C394B5
:100D80000E94BA15E090D202F090D302C30160E055
:100D90004EE020E80EE00E94B014E090D202F09005
:100DA000D302C30160E04FE020E80FE00E94B014DE
:100DB0000091D0021091D102C30160E043E122E032
:100DC000F2E0EF2EE2E0CE2E882483940E941816E3
:100DD000E090D202F090D302C30160E04DE220E83F
:100DE0000DE20E94B014E090D202F090D302C30151
:100DF00060E04EE220E80EE20E94B0140091D202C0
:100E00001091D302C30160E045E022E074E6E72ED2
:100E100071E0F72ECC24C3940E94BA150091D4023D
:100E20001091D502C3016EE045E022E071010E94FD
:100E3000BA150091D2021091D302C30160E046E0DE
:100E400022E052E7E52E51E0F52E0E94BA150091FE
:100E5000D4021091D502C3016EE046E022E0720197
:100E60000E94BA150091D2021091D302C30160E032
:100E700047E022E030E8E32E31E0F32E0E94BA157D
:100E80000091D4021091D502C3016AE047E022E04C
:100E9000B4E0EB2EF12CEC0EFD1E0E94BA15009171
:100EA000D4021091D502C30163E049E022E0A5E439
:100EB000EA2EF12CEC0EFD1E0E94BA15C85ADF4F27
:100EC0000FB6F894DEBF0FBECDBFCF91DF911F915B
:100ED0000F91FF90EF90CF90BF90AF908F907F9049
:100EE0006F905F904F903F902F9008952F923F9278
:100EF0004F925F926F927F928F929F92AF92BF922A
:100F0000CF92EF92FF920F931F93DF93CF93CDB7C2
:100F1000DEB727970FB6F894DEBF0FBECDBF8E01A8
:100F20000F5F1F4FC8010E94F004C8010E94D61233
:100F300044E8A42E42E0B42E0091CE021091CF02DC
:100F4000C50165E040E022E03BE8E32E31E0F32E0E
:100F5000CC24C3940E94BA15E090D202F090D30240
:100F6000C50160E04EE020E80EE00E94B014E09081
:100F7000D202F090D302C50160E04FE020E80FE01C
:100F80000E94B0140E9439049C01B901882777FDA2
:100F90008095982F0E94F223E62EF72E082F192F06
:100FA00020ED3FE049E450E40E940B2520E030E0D2
:100FB00044E353E40E9457230E946E251B012C0139
:100FC000C801B701905820ED3FE049E450E40E9489
:100FD0000B2520E030E044E353E40E9457230E94B5
:100FE00054233B014C016AE070E080E090E00E94F5
:100FF000AD0EC50160E446E422E200E010E0EE241C
:10100000E3940E944A150091D4021091D502C501C3
:1010100060E446E428E2EE240E944A15C201B101D0
:1010200020E030E040E052E40E940B2520E030E078
:1010300040E852E40E948E220E94BF23162FC40172
:10104000B30120E030E040E052E40E940B2520E0B4
:1010500030E04CE852E40E948E220E94BF23062F0B
:10106000E090CE02F090CF02C50160E446E4212F6B
:101070000E94B01427960FB6F894DEBF0FBECDBF06
:10108000CF91DF911F910F91FF90EF90CF90BF9084
:10109000AF909F908F907F906F905F904F903F9018
:1010A0002F9008952F923F924F925F926F927F926E
:1010B0008F929F92AF92BF92CF92DF92EF92FF9268
:1010C0000F931F93DF93CF93CDB7DEB727970FB65C
:1010D000F894DEBF0FBECDBF8E010F5F1F4FC8015A
:1010E0000E94F004C8010E94D6120091CE02109115
:1010F000CF0284E892E064E040E022E073E9E72E6A
:1011000071E0F72ECC24C3940E94BA15E090D2026D
:10111000F090D30284E892E060E04EE020E80EE038
:101120000E94B014E090D202F090D30284E892E0E2
:1011300060E04FE020E80FE00E94B0140091D2027E
:101140001091D30284E892E060E042E022E05DE9A1
:10115000E52E51E0F52E0E94BA1560E070E0CB015B
:1011600022E030E040E050E00E946F126B017C0111
:101170000E94A8055C0161E070E080E090E027E05B
:1011800030E040E050E00E946F123B014C0161E012
:1011900070E080E090E027E030E040E050E00E9426
:1011A0006F121B012C0188ECA816B104FCF0009111
:1011B000D4021091D50281E0C816D10451F484E81C
:1011C00092E06BE042E022E038EAE32E31E0F32ED9
:1011D00009C084E892E06BE042E022E0BEEAEB2E38
:1011E000B1E0FB2ECC24C3940E94BA15E090D20249
:1011F000F090D30284E892E065E04CE327E30EE64A
:10120000CC240E940515E090D202F090D30284E82D
:1012100092E066E44CE328E70E94051588ECA816E6
:10122000B1040CF472C2530181E068167104C1F478
:1012300084E892E066E04DE326E30CE6EE24FF242A
:10124000CC24C3940E9405150091D4021091D502BC
:1012500084E892E06EE145E525E0A2E0EA2E26C0B2
:1012600082E06816710429F584E892E066E04DE3B7
:1012700026E30CE6EE24FF24CC24C3940E9405153B
:101280000091D4021091D50284E892E06DE246E428
:1012900025E0F2E0EF2E0E944A150091D402109151
:1012A000D50284E892E06FE044E625E00E944A150A
:1012B0009EC083E06816710461F584E892E066E000
:1012C0004DE326E30CE6EE24FF24CC24C3940E94D5
:1012D00005150091D4021091D50284E892E06DE2E8
:1012E00046E425E0E2E0EE2E0E944A150091D40289
:1012F0001091D50284E892E06EE145E525E00E9478
:101300004A150091D4021091D50284E892E06FE072
:101310006CC084E06816710411F584E892E066E020
:101320004DE326E30CE6EE24FF24CC24C3940E9474
:1013300005150091D4021091D50284E892E06FE087
:1013400046E425E072E0E72E0E944A150091D4029F
:101350001091D50284E892E06FE044E631C085E068
:101360006816710409F043C084E892E066E04DE33A
:1013700026E30CE6EE24FF24CC24C3940E9405153A
:101380000091D4021091D50284E892E06FE046E427
:1013900025E052E0E52E0E944A150091D4021091FA
:1013A000D50284E892E06FE044E625E00E944A1509
:1013B0000091D4021091D50284E892E06EE145E5F7
:1013C00025E00E944A150091D4021091D50284E8CC
:1013D00092E06DE246E425E00E944A150091D402B5
:1013E0001091D50284E892E06DE244E652C086E0B6
:1013F000A816B10409F050C084E892E066E04DE31D
:1014000026E30CE6EE24FF24CC24C3940E940515A9
:101410000091D4021091D50284E892E06FE046E496
:1014200025E032E0E32E0E944A150091D40210918B
:10143000D50284E892E06FE044E625E00E944A1578
:101440000091D4021091D50284E892E06FE045E566
:1014500025E00E944A150091D4021091D50284E83B
:1014600092E06DE246E425E00E944A150091D40224
:101470001091D50284E892E06DE244E625E00E94F6
:101480004A150091D4021091D50284E892E06DE2F1
:1014900045E525E00E944A15510181E028163104F6
:1014A000C1F484E892E067E44DE327E70CE6EE241C
:1014B000FF24CC24C3940E9405150091D4021091FE
:1014C000D50284E892E06FE545E525E0B2E0EB2E39
:1014D00026C082E02816310429F584E892E067E40A
:1014E0004DE327E70CE6EE24FF24CC24C3940E94AE
:1014F00005150091D4021091D50284E892E06EE6C1
:1015000046E425E0A2E0EA2E0E944A150091D402AA
:101510001091D50284E892E060E544E625E00E945F
:101520004A159EC083E02816310461F584E892E0F4
:1015300067E44DE327E70CE6EE24FF24CC24C394B4
:101540000E9405150091D4021091D50284E892E022
:101550006EE646E425E0F2E0EF2E0E944A15009187
:10156000D4021091D50284E892E06FE545E525E0CC
:101570000E944A150091D4021091D50284E892E0AD
:1015800060E56CC084E02816310411F584E892E02F
:1015900067E44DE327E70CE6EE24FF24CC24C39454
:1015A0000E9405150091D4021091D50284E892E0C2
:1015B00060E546E425E0E2E0EE2E0E944A15009147
:1015C000D4021091D50284E892E060E544E631C08F
:1015D00085E02816310409F043C084E892E067E40E
:1015E0004DE327E70CE6EE24FF24CC24C3940E94AD
:1015F00005150091D4021091D50284E892E060E5CF
:1016000046E425E072E0E72E0E944A150091D402DC
:101610001091D50284E892E060E544E625E00E945E
:101620004A150091D4021091D50284E892E06FE54A
:1016300045E525E00E944A150091D4021091D5029B
:1016400084E892E06EE646E425E00E944A150091A7
:10165000D4021091D50284E892E06EE644E652C0CE
:1016600086E0A816B10409F050C084E892E067E46F
:101670004DE327E70CE6EE24FF24CC24C3940E941C
:1016800005150091D4021091D50284E892E060E53E
:1016900046E425E052E0E52E0E944A150091D4026E
:1016A0001091D50284E892E060E544E625E00E94CE
:1016B0004A150091D4021091D50284E892E060E5C9
:1016C00045E525E00E944A150091D4021091D5020B
:1016D00084E892E06EE646E425E00E944A15009117
:1016E000D4021091D50284E892E06EE644E625E04B
:1016F0000E944A150091D4021091D50284E892E02C
:101700006EE645E525E00E944A1527960FB6F89447
:10171000DEBF0FBECDBFCF91DF911F910F91FF9024
:10172000EF90DF90CF90BF90AF909F908F907F9081
:101730006F905F904F903F902F9008954F925F92DF
:101740006F927F928F929F92AF92BF92CF92EF92C1
:10175000FF920F931F93DF93CF93CDB7DEB76897B8
:101760000FB6F894DEBF0FBECDBF8E01085F1F4FCE
:10177000C8010E94F004C8010E94D6120E946805A8
:10178000E4E06E2E712C6C0E7D1EB30144E050E03F
:101790000E946C220E9480050E94BF23DC01CB01C5
:1017A0004E010894811C911CB4014AE050E00E9453
:1017B0006C2282E69DE4AA2797FDA095BA2F24E724
:1017C00032E0442737FD4095542F820F931FA41F0A
:1017D000B51F80509140A040B0407FE0472E512C73
:1017E0004C0E5D1EB2014AE050E00E946C2264E89B
:1017F000A62E62E0B62E0091CE021091CF02C50156
:1018000063E040E022E054EBE52E51E0F52ECC24DD
:10181000C3940E94BA15E090D202F090D302C501A1
:1018200060E04EE020E80EE00E94B014E090D202AA
:10183000F090D302C50160E04FE020E80FE00E9485
:10184000B0140091D2021091D302C50160E042E0D1
:1018500022E03FEBE32E31E0F32E0E94BA15009117
:10186000D4021091D502C50168E042E022E0730184
:101870000E94BA150091D2021091D302C50160E016
:1018800043E022E0B7ECEB2EB1E0FB2E0E94BA154C
:101890000091D4021091D502C5016AE043E022E034
:1018A00074010E94BA150091D2021091D302C501B1
:1018B00060E044E022E0A1EDEA2EA1E0FA2E0E94D1
:1018C000BA150091D4021091D502C50166E044E03A
:1018D00022E072010E94BA150091D2021091D30247
:1018E000C50160E045E022E0F7EDEF2EF1E0FF2ECC
:1018F0000E94BA150091D4021091D502C50169E089
:1019000045E022E0E0EEEE2EE1E0FE2E0E94BA1568
:1019100068960FB6F894DEBF0FBECDBFCF91DF91B2
:101920001F910F91FF90EF90CF90BF90AF909F903D
:101930008F907F906F905F904F9008950E94790EE6
:101940002091C3023091C4024091C5025091C60259
:10195000621B730B840B950B20914C0230914D024E
:1019600040914E0250914F022617370748075907FA
:1019700030F40E94C3051092C8021092C7028091F1
:101980004A0290914B02883C91057CF480E098EFEC
:101990009093CF028093CE029093D1028093D00295
:1019A0009093D3028093D20212C080E29DEF909375
:1019B000CF028093CE028EEC98E19093D102809377
:1019C000D0022EEB37EF3093D3022093D2029093C4
:1019D000D5028093D4028091C7029091C8028130D1
:1019E000910581F0823091051CF4009741F012C0FE
:1019F0008230910551F08330910561F409C00E9455
:101A0000340608C00E94760705C00E94520802C032
:101A10000E949E0B87E00E94B90F909375028093FD
:101A200074028130910529F490937B0280937A02AD
:101A300004C010927B0210927A0280917A029091F7
:101A40007B0220917C0230917D0282179307D1F0B6
:101A500081309105B9F48091C7029091C80283301A
:101A6000910529F41092C8021092C70205C0019690
:101A70009093C8028093C70284E892E00E94A31466
:101A80000E94B80585E00E94B90F90937902809377
:101A900078028130910529F490937F0280937E0231
:101AA00004C010927F0210927E0280917E0290917B
:101AB0007F02209180023091810282179307B9F052
:101AC00081309105A1F48091C7029091C8020097DE
:101AD00019F483E090E001C001979093C8028093CD
:101AE000C70284E892E00E94A3140E94B805809186
:101AF0007A0290917B0290937D0280937C02809188
:101B00007E0290917F02909381028093800282E016
:101B10000E94B90F90937702809376020097A1F408
:101B200080914802909149028130910569F40E94A8
:101B3000790E6093C9027093CA028093CB0290938E
:101B4000CC0281E08093CD028091CD028130D1F52D
:101B500080917602909177020097A1F580914802DA
:101B600090914902009771F50E94790E2091C90267
:101B70003091CA024091CB025091CC02621B730B90
:101B8000840B950B2091500230915102442737FD70
:101B90004095542F621773078407950798F081E0EA
:101BA00090E020918202309183022115310511F0DD
:101BB00080E090E090938302809382021092CD02A5
:101BC0000E94B80580917602909177029093490225
:101BD0008093480289E0609182020E94810F0895FB
:101BE0001F920F920FB60F921124E8980F900FBE1C
:101BF0000F901F90189584E892E00E944A148DE897
:101C000092E00E94B01708958E3008F08E508770D1
:101C1000909152029295990F990F907C982B9093E6
:101C20007C0080917A00806480937A0080917A00B1
:101C300086FDFCCF2091780030917900932F80E0D1
:101C400030E0282B392BC90108951F920F920FB64F
:101C50000F9211242F933F934F935F936F937F9332
:101C60008F939F93AF93BF932091EB023091EC023F
:101C70004091ED025091EE027091EF02DA01C9013C
:101C80000296A11DB11D672F6A5F6D3730F06D5749
:101C9000DA01C9010396A11DB11D6093EF02809383
:101CA000EB029093EC02A093ED02B093EE028091D0
:101CB000E7029091E802A091E902B091EA02019650
:101CC000A11DB11D8093E7029093E802A093E90261
:101CD000B093EA02BF91AF919F918F917F916F91E5
:101CE0005F914F913F912F910F900FBE0F901F90DA
:101CF00018958FB7F8942091EB023091EC02409147
:101D0000ED025091EE028FBFB901CA0108959FB74D
:101D1000F8942091E7023091E8024091E902509155
:101D2000EA0286B5A89B06C08F3F21F02F5F3F4F88
:101D30004F4F5F4F9FBF542F432F322F2227280F23
:101D4000311D411D511D83E0220F331F441F551FBC
:101D50008A95D1F7B901CA010895EF92FF920F93C6
:101D60001F93CF93DF937B018C010E94870EEB01C1
:101D70000FC00E94870E6C1B7D0B83E0683E7807C6
:101D800038F00894E108F10801091109C851DC4F45
:101D9000E114F1040105110561F7DF91CF911F9165
:101DA0000F91FF90EF900895789484B5826084BD80
:101DB00084B5816084BD85B5826085BD85B581604F
:101DC00085BDEEE6F0E0808181608083E1E8F0E0AF
:101DD0001082808182608083808181608083E0E8DE
:101DE000F0E0808181608083E1EBF0E080818460BD
:101DF0008083E0EBF0E0808181608083EAE7F0E0BF
:101E00008081846080838081826080838081816022
:101E100080838081806880831092C1000895833020
:101E200071F0843028F48130A1F0823021F514C0A3
:101E30008630B1F08730D1F08430E9F404C080916D
:101E400080008F7703C0809180008F7D8093800019
:101E5000089584B58F7702C084B58F7D84BD0895C1
:101E60008091B0008F778093B00008958091B0008A
:101E70008F7D8093B0000895EF92FF92CF93DF9310
:101E800090E0FC01EB51FF4F44918F529F4FFC01BA
:101E90008491882389F190E0880F991FFC01ED540B
:101EA000FF4F25913491D90183549F4FFC01259117
:101EB0003491E22EE7017E01F32EE701662349F417
:101EC0009FB7F8948C91409584238C9388818423C8
:101ED0000BC0623059F49FB7F8948C91242F209551
:101EE00082238C938881842B888305C09FB7F894C4
:101EF0008C91842B8C939FBFDF91CF91FF90EF90BB
:101F000008950F931F93DF93CF930F92CDB7DEB752
:101F1000282F30E0F901E750FF4F8491F901EB5190
:101F2000FF4F14912F523F4FF90104910023D9F034
:101F3000882321F069830E940F0F6981E02FF0E070
:101F4000EE0FFF1FE354FF4F85919491DC019FB783
:101F5000F894662321F48C911095812302C08C9112
:101F6000812B8C939FBF0F90CF91DF911F910F9189
:101F700008950F931F93282F30E0F901E750FF4F8A
:101F80008491F901EB51FF4F04912F523F4FF9011A
:101F90001491112391F0882311F00E940F0FE12F6B
:101FA000F0E0EE0FFF1FE953FF4F85919491DC01A4
:101FB0008C91802321E030E011F420E030E0C90171
:101FC0001F910F910895FC0184859585FC01E05CCB
:101FD000FF4F208131818E5B9F4FFC018081918179
:101FE000281B390B2F733070C9010895FC018485BB
:101FF0009585FC01E05CFF4F40815181FC01EE5B67
:10200000FF4F208131814217530741F00190F08149
:10201000E02DE80FF91F208130E002C02FEF3FEFE5
:10202000C9010895FC0184859585FC01E05CFF4FA2
:1020300040815181FC01EE5BFF4F208131814217CD
:10204000530771F0A081B181A80FB91F2C91808135
:10205000918101968F7390709183808330E002C0EC
:102060002FEF3FEFC9010895DC011E968D919C91E1
:102070001F97FC01E05CFF4F8E5B9F4F40815181B9
:10208000DC012D913C91119742175307B9F7089540
:10209000FC0126853785D901A05CBF4F8D919C91AD
:1020A00001968F739070D901AE5BBF4F4D915C91DB
:1020B000119784179507D1F3D901A05CBF4F0D90FC
:1020C000BC91A02DA20FB31F6C93A685B785A05C11
:1020D000BF4F11969C938E93A689B7892C9181E06E
:1020E00090E0058C02C0880F991F0A94E2F7282B14
:1020F0002C9381E090E00895FB01E05CFF4F20818C
:1021000031812F5F3F4F2F733070DB01AE5BBF4FCC
:102110004D915C9111972417350739F0A081B18159
:10212000A60FB71F8C9331832083089508951F92C3
:102130000F920FB60F9211242F933F934F935F93FB
:102140006F937F938F939F93AF93BF93EF93FF937F
:102150008091C60060EF72E00E947C10FF91EF91C9
:10216000BF91AF919F918F917F916F915F914F91AF
:102170003F912F910F900FBE0F901F90189588E7F9
:1021800093E00E94E30F009711F00E9496100895CB
:102190001F920F920FB60F9211242F933F938F939C
:1021A0009F93EF93FF932091740330917503809177
:1021B0007603909177032817390731F48091C10095
:1021C0008F7D8093C10014C0E0917603F091770376
:1021D000EC5CFC4F2081809176039091770301960F
:1021E0008F73907090937703809376032093C6004B
:1021F000FF91EF919F918F913F912F910F900FBE83
:102200000F901F9018959F92AF92BF92CF92DF923E
:10221000EF92FF920F931F93CF93DF93EC017A011C
:102220008B0199249394EC89FD8981E090E00E8CD8
:1022300002C0880F991F0A94E2F7808360E874E86F
:102240008EE190E0A80197010E9435262150304090
:1022500040405040569547953795279590E4A92ED4
:1022600092E4B92E9FE0C92ED12C12C09924EC899A
:10227000FD891082C601B501A80197010E9435268B
:10228000215030404040504056954795379527950E
:1022900080E12030380710F0992041F7E889F9896A
:1022A0003083EA89FB892083EE89FF89408181E0C0
:1022B00090E09C010A8C02C0220F331F0A94E2F7BF
:1022C000422B4083EE89FF8940819C010B8C02C028
:1022D000220F331F0A94E2F7422B4083EE89FF89D5
:1022E00040819C010C8C02C0220F331F0A94E2F73C
:1022F000422B4083EE89FF8920810D8C02C0880F1C
:10230000991F0A94E2F7809582238083DF91CF9111
:102310001F910F91FF90EF90DF90CF90BF90AF9003
:102320009F90089510927B0310927A0388EE93E0B9
:10233000A0E0B0E080937C0390937D03A0937E03A4
:10234000B0937F03EAE7F3E087E592E0929382930C
:1023500080EF92E09587848784E393E09787868770
:1023600085EC90E0918B808B84EC90E0938B828B5A
:1023700080EC90E0958B848B81EC90E0978B868B42
:1023800086EC90E0918F808F84E0828F83E0838F52
:1023900087E0848F85E0858F81E0868F0895CF93D5
:1023A000DF930E94D40E0E94BA00CFEBD0E10E94CE
:1023B0009E0C2097E1F30E94BF10F9CFCF92DF92DD
:1023C000EF92FF920F931F93CF93DF936C017B01EA
:1023D0008A01C0E0D0E00FC0D7016D917D01D60128
:1023E000ED91FC910190F081E02DC6010995C80F97
:1023F000D91F015010400115110571F7CE01DF9171
:10240000CF911F910F91FF90EF90DF90CF900895A3
:10241000DB010D900020E9F7AD0141505040461B13
:10242000570BDC01ED91FC910280F381E02D0995C1
:102430000895DC01ED91FC910190F081E02D09956A
:1024400008950F931F93CF93DF93EC016DE00E94EB
:1024500019128C01CE016AE00E941912080F191F8F
:10246000C801DF91CF911F910F9108950F931F9392
:10247000CF93DF93EC010E9408128C01CE010E94E1
:102480002112080F191FC801DF91CF911F910F91E1
:102490000895009729F0BC0180E090E00E94762129
:1024A0000895EF92FF920F931F937B018C016115AA
:1024B00071058105910549F00E947121A8019701DC
:1024C0000E9457269B01AC0103C020E030E0A90127
:1024D000B901CA011F910F91FF90EF900895EF92FB
:1024E000FF920F931F937B018C0162177307840780
:1024F000950764F4CA01B9016E197F09800B910B2D
:102500000E945112E60EF71E081F191FB701C801DD
:102510001F910F91FF90EF9008952F923F924F924D
:102520005F926F927F928F929F92AF92BF92CF9263
:10253000DF92EF92FF920F931F93DF93CF93CDB76C
:10254000DEB73B014C0119012A016D897E898F8913
:10255000988D6A197B098C099D09621A730A840A8D
:10256000950AA40193010E94EF25E218F3080409DB
:102570001509A80197010E9457262A0D3B1D4C1DE5
:102580005D1DB901CA01CF91DF911F910F91FF909D
:10259000EF90DF90CF90BF90AF909F908F907F9003
:1025A0006F905F904F903F902F900895FC01808135
:1025B00091810E9491200895CF93DF93EC0188814F
:1025C0009981009711F00E949120198218821D8232
:1025D0001C821B821A82DF91CF9108950F931F9363
:1025E000CF93DF93EC018B016F5F7F4F88819981DF
:1025F0000E947F21009731F0998388831B830A838F
:1026000081E001C080E0DF91CF911F910F9108958B
:10261000CF93DF93EC0188819981009729F08A811B
:102620009B818617970778F4CE010E94EE128823CB
:1026300041F08C819D81009731F4E881F98110820D
:1026400002C080E001C081E0DF91CF910895EF9258
:10265000FF920F931F93CF93DF93EC017B018A01CD
:10266000BA010E940813882321F4CE010E94DC12D3
:1026700007C01D830C8388819981B7010E9456226F
:10268000CE01DF91CF911F910F91FF90EF900895B0
:10269000CF93DF93FC011182108213821282158284
:1026A000148216826115710559F0EB010990002022
:1026B000E9F7AE0141505040461B570B0E942713CB
:1026C000DF91CF910895EF92FF92CF93DF93EC01CA
:1026D000FB018617970761F06081718161157105B3
:1026E00029F0448155810E94271302C00E94DC1208
:1026F000CE01DF91CF91FF90EF9008950F931F933C
:102700008C016115710561F0DB010D900020E9F786
:10271000AD0141505040461B570B0E94271302C089
:102720000E94DC12C8011F910F910895EF92FF9251
:102730000F931F93DF93CF93CDB7DEB762970FB69A
:10274000F894DEBF0FBECDBF7C01CB01F701118233
:102750001082138212821582148216828E010F5FFC
:102760001F4FB80150E00E946C22C701B8010E94BF
:102770007E1362960FB6F894DEBF0FBECDBFCF9129
:10278000DF911F910F91FF90EF900895EF92FF92CC
:102790000F931F93CF93DF93EC017B010C811D817D
:1027A00061157105B9F04115510591F0040F151F20
:1027B000B8010E940813882369F0288139818C812F
:1027C0009D81820F931FB7010E9456221D830C83A7
:1027D00081E001C080E0DF91CF911F910F91FF90C8
:1027E000EF900895FB0160817181448155810E94C1
:1027F000C61308956115710561F0DB010D9000208D
:10280000E9F7AD0141505040461B570B0E94C613DB
:10281000089580E008950F931F938C01FB01608160
:102820007181448155810E94C613882319F4C8011F
:102830000E94DC12C8011F910F9108950F931F93FE
:10284000CF93DF93FC018B0141155105F1F0611528
:102850007105D9F0C481D5812C173D0718F0FB0113
:10286000108213C041505040C21BD30B4C175D0760
:1028700008F4EA0160817181620F731FC801AE0123
:102880000E945D22C00FD11F1882DF91CF911F914E
:102890000F9108950895DC0117968D919C911897DA
:1028A000DC01ED91FC910190F081E02D09950895F6
:1028B000DC0117968D919C911897DC01ED91FC91AC
:1028C0000480F581E02D09950895DC0117968D911E
:1028D0009C911897DC01ED91FC910680F781E02D29
:1028E00009950895EF92FF920F931F93CF93DF9373
:1028F000EC010E94790E7B018C0116C00E94790EBA
:102900006E197F09800B910B613A2FE0720720E06E
:10291000820720E0920740F088E793E065EE71E0DF
:102920000E94361280E008C0CE010E94581488230D
:1029300029F3CE010E946514DF91CF911F910F9171
:10294000FF90EF900895CF93DF93EC0165E40E9430
:102950004B14CE010E9472148A83DF91CF910895A7
:10296000CF92DF92EF92FF920F931F93DF93CF935B
:1029700000D0CDB7DEB76C01162F6CE42A834983F3
:102980000E944B14C601612F0E944B14C60149815D
:10299000642F0E944B14C6012A81622F0E944B149F
:1029A000C601602F0E944B146F2D772767FD7A9523
:1029B000C6010E944B14C6016E2D0E944B14C60125
:1029C0000E947214F60182830F900F90CF91DF91D5
:1029D0001F910F91FF90EF90DF90CF9008951F937C
:1029E000CF93DF93EC01162F60E70E944B1461E058
:1029F000111160E0CE010E944B14CE010E947214AE
:102A00008A83DF91CF911F910895AF92BF92CF92A9
:102A1000EF92FF920F931F93DF93CF9300D0CDB728
:102A2000DEB75C01162F6C2D2A8349830E94EF14B8
:102A3000C50162E70E944B14C501612F0E944B142F
:102A4000C5014981642F0E944B14C5012A81622F60
:102A50000E944B14C501602F0E944B146F2D7727E5
:102A600067FD7A95C5010E944B14C5016E2D0E9429
:102A70004B14C5010E947214F50182830F900F90D0
:102A8000CF91DF911F910F91FF90EF90CF90BF906A
:102A9000AF900895CF92DF92EF92FF920F931F9322
:102AA000DF93CF9300D0CDB7DEB76C01F62E6E2D3D
:102AB0002A8349830E94EF14C60163E40E944B14E9
:102AC000C6016F2D0E944B14C6014981642F0E94DC
:102AD0004B14C6012A81622F0E944B14612F772765
:102AE00067FD7A95C6010E944B14C601602F0E94B3
:102AF0004B14C6010E947214F60182830F900F904E
:102B0000CF91DF911F910F91FF90EF90DF90CF90C9
:102B100008950F931F93CF93DF93EC018B0162E431
:102B20000E944B14612F772767FD7A95CE010E9492
:102B30004B14CE01602F0E944B14CE010E947214E0
:102B40008A83DF91CF911F910F9108951F93CF93A7
:102B5000DF93EC01162F6FE40E944B14CE01612F1E
:102B60000E944B14CE010E9472148A83DF91CF9190
:102B70001F910895AF92BF92CF92DF92EF92FF9292
:102B80000F931F93DF93CF9300D0CDB7DEB75C01D7
:102B9000D62E6C2D2A8349830E94A615C50163E7B2
:102BA0000E944B14C5016D2D0E944B14C501498133
:102BB000642F0E944B14C5012A81622F0E944B147E
:102BC000612F772767FD7A95C5010E944B14C501D7
:102BD000602F0E944B14CE2CDF2C00E010E008C0C8
:102BE000F60161916F01C5010E944B140F5F1F4FE9
:102BF000F70101900020E9F73197EE19FF090E1750
:102C00001F0770F3C50160E00E944B14C5010E94CC
:102C10007214F50182830F900F90CF91DF911F9175
:102C20000F91FF90EF90DF90CF90BF90AF900895FD
:102C30006F927F928F92AF92BF92CF92EF92FF925C
:102C40000F931F93DF93CF9300D0CDB7DEB73C0136
:102C5000F62E682D2A8349830E94A615C30163E5D9
:102C60000E944B14C3016F2D0E944B14C301498174
:102C7000642F0E944B14C3012A81622F0E944B14BF
:102C8000612F772767FD7A95C3010E944B14C3011A
:102C9000602F0E944B14C3016E2D0E944B14C30180
:102CA0006C2D0E944B14EA2CFB2C00E010E008C0B5
:102CB000F70161917F01C3010E944B140F5F1F4F09
:102CC000F50101900020E9F73197EA19FB090E1789
:102CD0001F0770F3C30160E00E944B14C3010E9400
:102CE0007214F30182830F900F90CF91DF911F91A7
:102CF0000F91FF90EF90CF90BF90AF908F907F900B
:102D00006F900895EF92FF921F93DF93CF930F92EE
:102D1000CDB7DEB77C01162F69E549830E944B14BD
:102D2000C701612F0E944B14C7014981642F0E9483
:102D30004B14C7010E947214F70182830F90CF9148
:102D4000DF911F91FF90EF9008951F93CF93DF9332
:102D5000EC01162F69E50E944B14CE0162E00E943F
:102D60004B14CE01612F0E944B14CE010E947214AD
:102D70008A83DF91CF911F9108951F93CF93DF93A3
:102D8000EC01162F69E50E944B14CE0161E00E9410
:102D90004B14CE01612F0E944B14CE010E9472147D
:102DA0008A83DF91CF911F910895CF93DF93EC0138
:102DB00066E50E944B14CE0160E00E944B14CE01E8
:102DC0000E947214CE010E947214CE010E947214ED
:102DD000CE010E9472148036B9F081363CF48832FC
:102DE00069F0823371F08232C9F405C0843679F01B
:102DF0008637A1F40FC08BED90E00EC08FE790E016
:102E00000BC08FE391E008C08FE990E005C08FE32D
:102E100090E002C08FEA90E09C838B83CE010E94F9
:102E200072148036B9F081363CF4883269F082330E
:102E300071F08232C9F405C0843679F08637A1F486
:102E40000FC08BED90E00EC08FE790E00BC08FE3DA
:102E500091E008C08FE990E005C08FE390E002C0E8
:102E60008FEA90E09E838D83DF91CF910895CF927A
:102E7000DF92EF92FF920F931F93CF93DF93EC01BA
:102E8000862F69017A0118870F836883798361E04F
:102E90000E943C0F888160E00E94810F6EE170E02B
:102EA00080E090E00E94AD0E888161E00E94810F79
:102EB00068EE73E080E090E00E94AD0E8F8198850F
:102EC000B701A6010E940311CE0165E50E944B14D3
:102ED000CE010E9472148A83CE010E94D516CE01C3
:102EE0000E94A314DF91CF911F910F91FF90EF905B
:102EF000DF90CF9008958DE061E00E943C0F8BE061
:102F000061E00E943C0F8AE061E00E943C0F8DE08E
:102F100060E00E94810F8BE060E00E94810F8AE0F8
:102F200061E00E94810F8CB580618CBD8CB580649E
:102F30008CBD0895882319F48CB5806202C08CB5CD
:102F40008F7D8CBD08959CB5937F982B9CBD089573
:102F5000DC01ED91FC910190F081E02D099508953F
:102F6000FC0180E090E0A7E0B4E4808F918FA28F15
:102F7000B38F80E090E0AAEFB3E4848F958FA68FA3
:102F8000B78F80E090E0A4E3B3E480A391A3A2A371
:102F9000B3A320E030E042E054EC24A335A346A3E1
:102FA00057A320E030E84EE054EC20A731A742A719
:102FB00053A720E030E840E454EC24A735A746A707
:102FC00057A783E081AB88E182AB14AA13AA15AAA4
:102FD0000895CF92DF92FF920F931F93DF93CF93C9
:102FE0000F92CDB7DEB76C01F62E0DED13E0C801E0
:102FF000F60162A949830E946F1DC8016F2D0E94CE
:103000001F1DC8014981642F0E941F1DC8010E9415
:103010008F1DF60180AB0F90CF91DF911F910F9123
:10302000FF90DF90CF900895CF92DF92FF920F93A1
:103030001F93DF93CF930F92CDB7DEB78C01F62E9F
:103040008DEDC82E83E0D82EC6016EE170E0498375
:103050000E94791DC6016F2D0E941F1DC601498166
:10306000642F0E941F1DC6010E948F1DF80180ABB6
:103070000F90CF91DF911F910F91FF90DF90CF9034
:103080000895CF93DF93EC0160E247E20E94E917D5
:10309000CE0162E040E00E941418DF91CF910895C4
:1030A0000F931F93CF93DF938C01EB0177FF34C015
:1030B0008FEF6D3F7807D9F0EFEF6E3F7E072CF46E
:1030C000FFEF6C3F7F0741F517C08FEF6E3F78072A
:1030D00049F0EFEF6F3F7E07F9F4F80181A98823EB
:1030E00081F415C0F80181A9882371F413C0F80197
:1030F00081A9882361F405C0F80181A9882351F4CE
:1031000003C0C7E0D0E008C0C8E0D0E005C0C5E01B
:10311000D0E002C0C6E0D0E08DED93E06EE170E05B
:103120000E94791D8DED93E0BE010E94A8178DEDE0
:1031300093E00E948F1DF80180AB8DED93E06EE16E
:1031400070E041E050E00E946B1D8DED93E00E9425
:10315000C81C082F8DED93E00E948F1D802FDF91FA
:10316000CF911F910F910895CF92DF92EF92FF922E
:103170000F931F93CF93DF93EC018DED93E06AA93A
:103180000E946F1D8DED93E068EA70E00E94A81721
:103190008DED93E00E948F1D88AB8DED93E06AA9C1
:1031A00046E00E94671D0E94790E8B011DAA10C087
:1031B0008BA99CA9009761F00E94790E601B710B8E
:1031C0008BA99CA98617970718F481E08DAB64C082
:1031D0008DED93E00E94BF1C863091054CF38DED80
:1031E00093E00E94C81CD82E8DED93E00E94C81C6D
:1031F000C82E8DED93E00E94C81CF82E8DED93E053
:103200000E94C81CE82E8DED93E00E94C81C082F78
:103210008DED93E00E94C81C182F3C2D20E06D2DF1
:1032200070E0622B732B34E0759567953A95E1F762
:10323000882777FD8095982F0E94F22368837983F1
:103240008A839B839E2D80E06F2D70E0682B792B05
:1032500024E0759567952A95E1F7882777FD809595
:10326000982F0E94F2236C837D838E839F83912FFE
:1032700080E0602F70E0682B792B94E0759567955E
:103280009A95E1F7882777FD8095982F0E94F22381
:10329000688779878A879B87DF91CF911F910F91EC
:1032A000FF90EF90DF90CF900895CF92DF92EF9252
:1032B000FF920F931F93CF93DF93EC018DED93E07B
:1032C0006EE170E00E94791D8DED93E063E070E0A7
:1032D0000E94A8178DED93E00E948F1D88AB8DEDA5
:1032E00093E06EE170E046E050E00E946B1D0E94AA
:1032F000790E8B011DAA10C08BA99CA9009761F0C3
:103300000E94790E601B710B8BA99CA986179707E9
:1033100018F481E08DAB6DC08DED93E00E94BF1C71
:10332000863091054CF38DED93E00E94C81CC82EA9
:103330008DED93E00E94C81CD82E89A98823A9F49A
:103340008DED93E00E94C81CE82E8DED93E00E9465
:10335000C81CF82E8DED93E00E94C81C182F8DED2F
:1033600093E00E94C81C082F14C08DED93E00E94CA
:10337000C81C182F8DED93E00E94C81C082F8DEDFE
:1033800093E00E94C81CE82E8DED93E00E94C81CBB
:10339000F82E3C2D20E06D2D70E0622B732B8827DA
:1033A00077FD8095982F0E94F2236C877D878E870A
:1033B0009F879E2D80E06F2D70E0682B792B8827EA
:1033C00077FD8095982F0E94F223688B798B8A8BEA
:1033D0009B8B912F80E0602F70E0682B792B8827E2
:1033E00077FD8095982F0E94F2236C8B7D8B8E8BBE
:1033F0009F8BDF91CF911F910F91FF90EF90DF9006
:10340000CF900895CF93DF93EC010E94B418CE01C2
:103410000E945519DF91CF9108952F923F924F92BC
:103420005F926F927F928F929F92AF92BF92CF9254
:10343000DF92EF92FF920F931F93DF93CF9300D011
:1034400000D000D0CDB7DEB78C017E836D831A012A
:10345000DB0118964D905D906D907C901B97FC0160
:10346000C084D184E284F384C301B2012481358114
:10347000468157810E940B254B015C01C701B601B3
:10348000AD81BE8114962D913D914D915C91179720
:103490000E940B259B01AC01C501B4010E948D2245
:1034A000F1016083718382839383AD81BE818D91AD
:1034B0009D910D90BC91A02D89839A83AB83BC8391
:1034C000F80180809180A280B380C701B601298174
:1034D0003A814B815C810E940B256B017C01C50107
:1034E000B401A30192010E940B259B01AC01C7010D
:1034F000B6010E948D22D10114966D937D938D9318
:103500009C931797C501B401ED81FE81248135811B
:10351000468157810E940B256B017C0169817A816C
:103520008B819C81D80114962D913D914D915C9198
:1035300017970E940B259B01AC01C701B6010E94A1
:103540008D22F101608771878287938726960FB657
:10355000F894DEBF0FBECDBFCF91DF911F910F91C9
:10356000FF90EF90DF90CF90BF90AF909F908F90A3
:103570007F906F905F904F903F902F900895CF92E3
:10358000DF92EF92FF920F931F93CF93DF93EC01A3
:103590008B01688179818A819B81F8012081318149
:1035A000428153810E940B256B017C016C817D81DE
:1035B0008E819F81F80124813581468157810E9447
:1035C0000B259B01AC01C701B6010E948E226B0145
:1035D0007C01688579858A859B85F8012085318500
:1035E000428553850E940B259B01AC01C701B601A2
:1035F0000E948E22DF91CF911F910F91FF90EF904B
:10360000DF90CF900895EF92FF920F931F93CF9387
:10361000DF93EC01BE010E94BF1A0E9478257B0156
:103620008C01688179818A819B81A80197010E9420
:103630005723688379838A839B836C817D818E8104
:103640009F81A80197010E9457236C837D838E83FD
:103650009F83688579858A859B85A80197010E944B
:103660005723688779878A879B87DF91CF911F913E
:103670000F91FF90EF9008956F927F928F929F929B
:10368000AF92BF92CF92DF92EF92FF920F931F9370
:10369000DF93CF93CDB7DEB7E0970FB6F894DEBFD8
:1036A0000FBECDBF5C01CDA2DEA2EFA2F8A609A796
:1036B0001AA72BA73CA74DA75EA76FA778ABFC0165
:1036C000E4A0F5A006A117A1648575858685978578
:1036D000A80197010E948D223B014C01F501608DEC
:1036E000718D828D938DA80197010E948D229B017F
:1036F000AC01C401B3010E9457239B01AC010E949D
:103700008E2220E030E040E85FE30E948D22F50148
:103710006487758786879787E0A4F1A402A513A51F
:103720006089718982899389A80197010E948D22FD
:103730003B014C01F501648D758D868D978DA80137
:1037400097010E948D229B01AC01C401B3010E942C
:1037500057239B01AC010E948E2220E030E040E81C
:103760005FE30E948D22F501608B718B828B938BBE
:10377000E4A4F5A406A517A56489758986899789A7
:10378000A80197010E948D223B014C01F50160A127
:1037900071A182A193A1A80197010E948D229B0192
:1037A000AC01C401B3010E9457239B01AC010E94EC
:1037B0008E2220E030E040E85FE30E948D22F50198
:1037C000648B758B868B978BDE0111968CE0019054
:1037D0000D928150E1F77E010894E11CF11CC701B4
:1037E0000E94031B8E01035F1F4FC5010C96B7019A
:1037F000A8010E940D1AC8010E94031B59E1C52EA1
:10380000D12CCC0EDD1EC701B801A6010E940D1AF5
:1038100045E2A42EB12CAC0EBD1EC801B5010E941C
:10382000BF1A7B018C01C601B5010E94BF1A9B0122
:10383000AC01C801B7010E94012320E030E044E35D
:1038400053E40E940B252BED3FE049E450E40E9435
:103850005723A62EC72EE82E092F20E030E0A9011D
:103860000E94002587FD0BC06A2D7C2D8E2D902F88
:1038700020E030E040E05FE30E948E220AC06A2D23
:103880007C2D8E2D902F20E030E040E05FE30E9401
:103890008D220E94BF2377FF02C068597E4FCB0163
:1038A000E0960FB6F894DEBF0FBECDBFCF91DF918B
:1038B0001F910F91FF90EF90DF90CF90BF90AF904E
:1038C0009F908F907F906F900895CF93DF93EC013E
:1038D0008DED93E068E170E00E94791D8DED93E03D
:1038E00060E270E00E94A8178DED93E00E948F1DAA
:1038F00088AB8DED93E068E170E041E050E00E941C
:103900006B1D8DED93E00E94BF1C009731F08DED93
:1039100093E00E94C81C80E001C081E0DF91CF915C
:103920000895CF93DF93EC0169AB623018F06230F9
:1039300071F40AC0442331F0413031F00E94651C1B
:10394000813011F088E101C089E18AAB15C00E9485
:10395000651C813029F489E18AAB82E089AB0CC017
:1039600088E18AABCE016FE070E00E94501891E0D0
:103970008C3309F090E099ABDF91CF9108952091BD
:10398000B80330E08091B703281B3109C9010895BD
:103990008091B7039091B803891750F4E82FF0E0B5
:1039A000E956FC4F208130E08F5F8093B70302C05F
:1039B0002FEF3FEFC9010895E091B7038091B8035D
:1039C000E81730F4F0E0E956FC4F208130E002C007
:1039D0002FEF3FEFC90108950895CF92DF92EF9244
:1039E000FF920F931F93CF93DF936C01CB01EA01FA
:1039F0002091DC032223B1F0E62EF92E00E010E046
:103A00000DC0D7016D917D01D601ED91FC91019022
:103A1000F081E02DC60109950F5F1F4F0C171D07A0
:103A200080F303C0642F0E94651ECE01DF91CF9109
:103A30001F910F91FF90EF90DF90CF900895DF934B
:103A4000CF930F92CDB7DEB769832091DC03222399
:103A5000D1F02091DB03203240F021E030E0FC0186
:103A60003383228320E030E015C08091DA03E82F11
:103A7000F0E0E654FC4F998190838F5F8093DA03E6
:103A80008093DB0305C0CE01019661E00E94651EB4
:103A900021E030E0C9010F90CF91DF91089510929D
:103AA000B7031092B8031092DA031092DB030E945E
:103AB000AA1D0895862F413208F040E267E973E0BD
:103AC0000E94C81D1092B7038093B803089521E0A7
:103AD0000E945A1D089521E00E945A1D089581E018
:103AE0008093DC036093B9031092DA031092DB0336
:103AF00008950E946F1D08950F93062F8091B903BA
:103B00006AEB73E04091DB0321E00E94111E1092EA
:103B1000DA031092DB031092DC030F91089561E049
:103B20000E947C1D08951092E0031092DF0388EE3E
:103B300093E0A0E0B0E08093E1039093E203A093D0
:103B4000E303B093E40387E692E09093DE0380936F
:103B5000DD03089510920E0481E080930C0410920E
:103B60000D0482E161E00E94810F83E161E00E9427
:103B7000810FE9EBF0E080818E7F808380818D7FF3
:103B8000808380E28093B80085E48093BC00089530
:103B9000413208F043C090910E049923E1F791E07F
:103BA00090930E0420930C042FEF20930F04109297
:103BB000EA03242F21502093EB039093E903909183
:103BC000E903880F892B8093E90380910D048130EC
:103BD00041F410920D048091E9038093BB0085ECC1
:103BE00001C085EE8093BC0080910E048130E1F32A
:103BF0008091EA03841710F44091EA03ECEEF3E0BD
:103C0000262F372FD901242F30E02E0F3F1F02C05F
:103C100081918D93E217F307D9F701C040E0842F1B
:103C200008950F93413208F047C090910E049923F4
:103C3000E1F792E090930E0400930C049FEF9093B1
:103C40000F041092EA034093EB03DB01ECEEF3E088
:103C500050E04E0F5F1F02C09D919193E417F5074E
:103C6000D9F71092E9039091E903880F892B80938B
:103C7000E90380910D04813041F410920D0480918C
:103C8000E9038093BB0085EC01C085EE8093BC0006
:103C9000222321F080910E048230E1F380910F0401
:103CA0008F3F61F080910F04803251F080910F04BA
:103CB000803341F483E007C081E005C080E003C0A9
:103CC00082E001C084E00F9108956132A0F4209158
:103CD0000E04243091F460933404DC01E7E3F4E053
:103CE00070E06E0F7F1F02C08D918193E617F7077A
:103CF000D9F780E0089581E0089582E0089588234F
:103D000011F085EC01C085E88093BC00089585ED35
:103D10008093BC008091BC0084FDFCCF10920E0407
:103D2000089585EC8093BC0010920E0408951F92B4
:103D30000F920FB60F9211242F933F934F935F93DF
:103D40006F937F938F939F93AF93BF93EF93FF9363
:103D50008091B90090E0887F90708036910509F4D9
:103D6000CCC081369105E4F58832910509F47EC016
:103D700089329105C4F48031910509F472C0813112
:103D8000910544F4009709F41DC18830910509F0AC
:103D90001DC167C08831910509F468C08032910562
:103DA00009F014C177C08034910509F489C08134C9
:103DB00091054CF48033910509F46EC08833910568
:103DC00009F004C16DC08035910509F46DC08835D6
:103DD000910509F47AC08834910509F0F7C0F4C060
:103DE0008839910509F4E4C089399105ECF48837E4
:103DF000910509F482C0893791054CF48836910504
:103E000009F47BC08037910509F0E0C076C088389E
:103E1000910509F4CDC08039910509F474C080384A
:103E2000910509F0D3C06FC0803B910509F498C09B
:103E3000813B91054CF4803A910509F476C0883AAB
:103E4000910509F0C3C08CC0803C910509F4B4C051
:103E5000883C910509F4B0C0883B910509F0B6C0D3
:103E600094C08091E9038093BB0012C09091EA0353
:103E70008091EB039817A8F58091EA03E82FF0E012
:103E8000E451FC4F90819093BB008F5F8093EA03D5
:103E900081E08FC080E201C080E380930F0494C072
:103EA00088E380930F0459C08091EA039091BB008E
:103EB000E82FF0E0E451FC4F90838F5F8093EA039A
:103EC0009091EA038091EB0370C08091EA03909196
:103ED000BB00E82FF0E0E451FC4F90838F5F8093AC
:103EE000EA0380910C04882309F06EC081E080937E
:103EF0000D0484EA8093BC0062C083E080930E04CA
:103F000010921004C5CF80911004803208F050C088
:103F1000809110049091BB00E82FF0E0EF5EFB4F22
:103F200090838F5F80931004B3CF80911004803210
:103F300030F4E0911004F0E0EF5EFB4F10820E943D
:103F4000871E60911004E0913104F091320481E108
:103F500094E070E00995109210040E94911E36C002
:103F600084E080930E041092330410923404E091A4
:103F70003504F0913604099580913404882329F49E
:103F800081E0809334041092370480913304E82F49
:103F9000F0E0E95CFB4F90819093BB008F5F8093D2
:103FA00033049091330480913404981708F470CF4F
:103FB00080E00E947F1E0AC081E00E947F1E109256
:103FC0000E0404C010920F040E94871EFF91EF910F
:103FD000BF91AF919F918F917F916F915F914F9121
:103FE0003F912F910F900FBE0F901F901895CF9378
:103FF000DF938230910510F482E090E0E091590463
:10400000F0915A0440E050E020E030E026C06081AA
:10401000718168177907E0F06817790781F4828168
:1040200093812115310531F0D90113969C938E931C
:1040300012972BC090935A048093590426C04115BF
:10404000510519F06417750718F4AB01E901DF0198
:104050009F0172816381E72FF62F3097C1F64115DA
:10406000510501F1481B590B4430510580F412965B
:104070008D919C911397209719F09B838A8304C09C
:1040800090935A0480935904FD01329646C0FD0175
:10409000E40FF51F819391934250504011965C9329
:1040A0004E933BC02091570430915804211531059F
:1040B00041F4209140023091410230935804209302
:1040C000570420914202309143022115310541F4F9
:1040D0002DB73EB740913E0250913F02241B350B55
:1040E000E0915704F0915804E217F307A0F42E1B57
:1040F0003F0B2817390778F0AC014E5F5F4F24174C
:10410000350748F04E0F5F1F5093580440935704F3
:104110008193919302C0E0E0F0E0CF01DF91CF9175
:104120000895CF93DF93009709F491C0FC01329773
:10413000138212826091590470915A0461157105BD
:1041400081F420813181280F391F8091570490918B
:1041500058048217930799F5F0935804E093570495
:1041600076C0DB0180E090E002C0CD01D901AE173E
:10417000BF0748F412962D913C91139721153105F4
:10418000A1F7CD0121C0B383A283EF0149915991D9
:104190009E01240F351FA217B30779F42D913C918E
:1041A0001197240F351F2E5F3F4F318320831296C6
:1041B0002D913C91139733832283009729F4F09338
:1041C0005A04E093590443C0DC011396FC93EE9328
:1041D00012974D915D91A40FB51FEA17FB0769F483
:1041E00020813181240F351F2E5F3F4FEC01398331
:1041F0002883228133813B832A83E0E0F0E002C000
:10420000FB01BC01DB0112968D919C9113970097E5
:10421000B9F79B012E5F3F4F8D919C911197820FB3
:10422000931F40915704509158044817590779F447
:10423000309729F410925A041092590402C0138244
:104240001282225030403093580420935704DF915B
:10425000CF910895A0E0B0E0E0E3F1E20C947A267B
:10426000EC01688179818A819B81611571058105E5
:10427000910521F464E279ED8BE597E02DE133EFD0
:1042800041E050E00E94572679018A0127EA31E493
:1042900040E050E00E94EF255B016C01C801B701CE
:1042A0002CEE34EF4FEF5FEF0E94EF259B01AC0146
:1042B0002A0D3B1D4C1D5D1D57FF04C02150304091
:1042C00040405048288339834A835B835F77B90134
:1042D000CA01CDB7DEB7EAE00C9496260E942A21E7
:1042E000089584E492E00E942A2108956093440294
:1042F0007093450280934602909347020895A0E090
:10430000B0E0E5E8F1E20C9478268C01CB010115D0
:10431000110529F40E94F71F082F192FB5C0D801E5
:1043200012979801260F371F2A173B0708F4AAC0D7
:10433000ED90FC901197E616F706D0F045E0E416F4
:10434000F10408F4A1C0A701445050404617570794
:1043500008F49AC0A70142505040461B570BF90180
:10436000419351936D937C93CF010E9491208CC017
:104370005B01AE18BF0848018E0C9F1CE0915904E8
:10438000F0915A04CC24DD24C0E0D0E041C0E8150F
:10439000F90599F560817181AB014E5F5F4F4A1558
:1043A0005B0558F1AB014A195B09CC24DD24689404
:1043B000C1F8C40ED51E8280A380E5E0CE16D104DC
:1043C00048F0F9018282A3825183408311969C9325
:1043D0008E9309C0C7010296860F971F11969C9372
:1043E0008E93E82DFA2D209719F0FB83EA834CC0B9
:1043F000F0935A04E093590447C040815181C41698
:10440000D50608F46A01EF0152814381E52FF42FAC
:10441000309709F0BCCF409157045091580448158B
:104420005905E9F4C816D906D0F4409142025091DA
:1044300043024115510541F44DB75EB760913E020C
:1044400070913F02461B570B24173507D8F4309361
:1044500058042093570411969C938E9315C00E9484
:10446000F71FC82EE6016E01D92EE601209751F004
:104470008C2DB801A7010E944D22C8010E949120F5
:10448000860102C000E010E0C801CDB7DEB7ECE065
:104490000C949426F8940C94AF26FB01DC0102C026
:1044A00001900D9241505040D8F70895FB01DC0176
:1044B00001900D920020E1F70895FB01DC014150CD
:1044C000504048F001900D920020C9F701C01D92A4
:1044D00041505040E0F70895FB019F01E8944230BD
:1044E000C4F04532B4F44A3029F497FB1EF4909599
:1044F00081959F4F642F77270E940E26805D8A3317
:104500000CF0895D8193CB010097A1F716F45DE271
:1045100051931082C9010C94B9255058BB27AA2782
:104520000ED023C2ECD130F0F1D120F031F49F3F16
:1045300011F41EF4BCC10EF4E095E7FBB2C1E92F03
:1045400036D280F3BA17620773078407950718F00D
:1045500071F49EF54EC20EF4E0950B2EBA2FA02DED
:104560000B01B90190010C01CA01A0011124FF2720
:10457000591B99F0593F50F4503E68F11A16F0401B
:10458000A22F232F342F4427585FF3CF469537951A
:104590002795A795F0405395C9F77EF41F16BA0BDF
:1045A000620B730B840BBAF09150A1F0FF0FBB1F8D
:1045B000661F771F881FC2F70EC0BA0F621F731FD6
:1045C000841F48F4879577956795B795F7959E3F33
:1045D00008F0B3CF9395880F08F09927EE0F9795C1
:1045E000879508958CD158F080E891E009F49EEF0A
:1045F0008DD128F040E851E059F45EEF09C057C171
:10460000F8C1E92FE078D3D168F3092E052AC1F368
:10461000261737074807590738F00E2E07F8E02508
:1046200069F0E025E0640AC0EF6307F8009407FA38
:10463000DB01B9019D01DC01CA01AD01EF9346D058
:1046400094D10AD05F91552331F02BED3FE049E43E
:1046500050FD49EC63CF0895DF93DD27B92FBF7775
:1046600040E85FE31616170648075B0710F4D92FDA
:10467000CBD19F938F937F936F9378D2E8E6F0E04E
:1046800019D173D12F913F914F915F91D0D1DD23FB
:1046900049F09058A2EA2AED3FE049EC5FE3D07878
:1046A0005D274DDFDF9161C139D1E3956FC10CD03A
:1046B0005CC12CD140F023D130F021F45F3F19F0E0
:1046C000F0C0511197C1F3C072D198F39923C9F387
:1046D0005523B1F3951B550BBB27AA276217730708
:1046E000840738F09F5F5F4F220F331F441FAA1FBC
:1046F000A9F333D00E2E3AF0E0E830D0915050407C
:10470000E695001CCAF729D0FE2F27D0660F771F29
:10471000881FBB1F261737074807AB07B0E809F00B
:10472000BB0B802DBF01FF2793585F4F2AF09E3FA0
:10473000510568F0B6C05EC15F3FECF3983EDCF314
:10474000869577956795B795F7959F5FC9F7880F19
:10475000911D9695879597F90895E1E0660F771F6B
:10476000881FBB1F621773078407BA0720F0621BFC
:10477000730B840BBA0BEE1F88F7E095089504D0F5
:104780006894B11137C108951AD188F09F5790F0FD
:10479000B92F9927B751A0F0D1F0660F771F881F66
:1047A000991F1AF0BA95C9F712C0B13081F021D122
:1047B000B1E008951EC1672F782F8827B85F39F0C0
:1047C000B93FCCF3869577956795B395D9F73EF4C5
:1047D00090958095709561957F4F8F4F9F4F08956D
:1047E000E89409C097FB3EF490958095709561958B
:1047F0007F4F8F4F9F4F9923A9F0F92F96E9BB2741
:104800009395F695879577956795B795F111F8CFBC
:10481000FAF4BB0F11F460FF1BC06F5F7F4F8F4F27
:104820009F4F16C0882311F096E911C0772321F01D
:104830009EE8872F762F05C0662371F096E8862FB5
:1048400070E060E02AF09A95660F771F881FDAF70C
:10485000880F9695879597F90895990F0008550F39
:10486000AA0BE0E8FEEF16161706E807F907C0F0F6
:1048700012161306E407F50798F0621B730B840BFE
:10488000950B39F40A2661F0232B242B252B21F4D8
:1048900008950A2609F4A140A6958FEF811D811D78
:1048A000089597F99F6780E870E060E008959FEFB2
:1048B00080EC0895DF93CF931F930F93FF92EF92B5
:1048C000DF927B018C01689405C0DA2EEF01AFD036
:1048D000FE01E894A5912591359145915591AEF34E
:1048E000EF012DDEFE019701A801DA9479F7DF9040
:1048F000EF90FF900F911F91CF91DF9108950024C9
:104900000A941616170618060906089500240A9434
:1049100012161306140605060895C9CF50D0E8F301
:10492000E894E0E0BB279F57F0F02AED3FE049EC28
:1049300006C0EE0FBB0F661F771F881F28F0B23A24
:1049400062077307840728F0B25A620B730B840B5B
:10495000E3959A9572F7803830F49A95BB0F661FED
:10496000771F881FD2F7904816C1092E0394000CB8
:1049700011F4882352F0BB0F40F4BF2B11F460FFF9
:1049800004C06F5F7F4F8F4F9F4F0895EF93E0FFFD
:1049900006C0A2EA2AED3FE049EC5FEBD0DDE5DF9F
:1049A0000F90039401FC9058E5E9F0E007C157FD32
:1049B0009058440F551F59F05F3F71F04795880F8D
:1049C00097FB991F61F09F3F79F087950895121624
:1049D00013061406551FF2CF4695F1DF08C01616D0
:1049E00017061806991FF1CF869571056105089481
:1049F0000895E894BB2766277727CB0197F9089598
:104A00002CDF08F48FEF08959B01AC0160E070E0AB
:104A100080E89FE34CCE0BD0A8CF71DF28F076DF83
:104A200018F0952309F03DCF42CF1124E3CFBFDF2B
:104A3000A0F3959FD1F3950F50E0551F629FF001B1
:104A4000729FBB27F00DB11D639FAA27F00DB11D0A
:104A5000AA1F649F6627B00DA11D661F829F222793
:104A6000B00DA11D621F739FB00DA11D621F839F1A
:104A7000A00D611D221F749F3327A00D611D231FF0
:104A8000849F600D211D822F762F6A2F11249F573E
:104A900050408AF0E1F088234AF0EE0FFF1FBB1F61
:104AA000661F771F881F91505040A9F79E3F510500
:104AB00070F0F7CE9FCF5F3FECF3983EDCF3869526
:104AC00077956795B795F795E7959F5FC1F7FE2BAB
:104AD000880F911D9695879597F908959F931EDFEE
:104AE0000F9007FCEE5F52CF11F40EF4E0CE51C0F0
:104AF00066DFD0F39923D9F3CEF39F57550B87FF89
:104B000056D00024A0E640EA90018058569597952B
:104B100028F4805C660F771F881F20F02617370760
:104B2000480730F4621B730B840B202931294A2B70
:104B3000A69517940794202531254A2758F7660F24
:104B4000771F881F20F026173707480730F4620BBD
:104B5000730B840B200D311D411DA09581F7B90108
:104B6000842F9158880F9695879508959B01AC01E5
:104B700052CFDC01FC01672F71917723E1F7329767
:104B800004C07C916D9370836291AE17BF07C8F328
:104B900008959F3F31F0915020F487957795679560
:104BA000B795880F911D9695879597F9089591501F
:104BB0005040660F771F881FD2F708959F938F93F9
:104BC0007F936F93FF93EF939B01AC0124DFEF91F1
:104BD000FF9170DE2F913F914F915F911CCF629FAB
:104BE000D001739FF001829FE00DF11D649FE00DE5
:104BF000F11D929FF00D839FF00D749FF00D659F46
:104C0000F00D9927729FB00DE11DF91F639FB00D44
:104C1000E11DF91FBD01CF0111240895AA1BBB1B83
:104C200051E107C0AA1FBB1FA617B70710F0A61BAC
:104C3000B70B881F991F5A95A9F780959095BC01CD
:104C4000CD01089597FB092E07260AD077FD04D0E1
:104C5000E5DF06D000201AF4709561957F4F089526
:104C6000F6F7909581959F4F0895A1E21A2EAA1B01
:104C7000BB1BFD010DC0AA1FBB1FEE1FFF1FA2170C
:104C8000B307E407F50720F0A21BB30BE40BF50B09
:104C9000661F771F881F991F1A9469F76095709592
:104CA000809590959B01AC01BD01CF01089597FBC4
:104CB000092E05260ED057FD04D0D7DF0AD0001CE0
:104CC00038F450954095309521953F4F4F4F5F4FA9
:104CD0000895F6F790958095709561957F4F8F4F69
:104CE0009F4F08952F923F924F925F926F927F92C3
:104CF0008F929F92AF92BF92CF92DF92EF92FF92EC
:104D00000F931F93CF93DF93CDB7DEB7CA1BDB0B97
:104D10000FB6F894DEBF0FBECDBF09942A8839883C
:104D200048885F846E847D848C849B84AA84B98443
:104D3000C884DF80EE80FD800C811B81AA81B9814F
:104D4000CE0FD11D0FB6F894DEBF0FBECDBFED0163
:104D50000895EE0FFF1F0590F491E02D0994F8944B
:024D6000FFCF83
:104D6200426F6F74696E672E002E006F004F000055
:104D72003000414D00504D003A0020003230002DED
:104D820000585800204E004E450020450053450073
:104D92002053005357002057004E570020204461F3
:104DA200726B0020202044696D00204C6967687492
:104DB200004272696768740020426C696E64004D3B
:104DC20061696E0054656D70657261747572653AE1
:104DD2002000446972656374696F6E3A2020200076
:104DE2004C696768743A2020202000436F6D70611F
:104DF2007373004C616479204C75636B00436F6977
:104E02006E20466C69703A004865616473005461B3
:104E1200696C7300446961676E6F737469630046FD
:104E2200205352414D3A004D43552054656D703A1E
:104E32000053697A653A0056657273696F6E3A007B
:104E4200342E34310053657269616C2074696D656A
:104E52006F7574006475726174696F6E3A200064D4
:104E6200656661756C745F6F63746176652000625C
:104E7200706D3A200077686F6C656E6F7465200004
:104E8200206D7300506C6179696E673A20002028AA
:104E92000029200050617573696E673A2000200076
:104EA2005B040000010000000100000430750000F6
:104EB200F40101000000004810DE11E30F1210F6A9
:104EC2000F3410000000001F1DED1CBF1CC81CDCAD
:044ED2001CEC1C00B8
:00000001FF
